{
  "_format": "hh-sol-artifact-1",
  "contractName": "Library",
  "sourceName": "contracts/Library.sol",
  "abi": [
    {
      "anonymous": false,
      "inputs": [
        {
          "indexed": true,
          "internalType": "address",
          "name": "previousOwner",
          "type": "address"
        },
        {
          "indexed": true,
          "internalType": "address",
          "name": "newOwner",
          "type": "address"
        }
      ],
      "name": "OwnershipTransferred",
      "type": "event"
    },
    {
      "inputs": [
        {
          "internalType": "uint256",
          "name": "",
          "type": "uint256"
        }
      ],
      "name": "BookLedger",
      "outputs": [
        {
          "internalType": "string",
          "name": "name",
          "type": "string"
        },
        {
          "internalType": "uint256",
          "name": "copies",
          "type": "uint256"
        },
        {
          "internalType": "uint256",
          "name": "ownerCount",
          "type": "uint256"
        }
      ],
      "stateMutability": "view",
      "type": "function"
    },
    {
      "inputs": [
        {
          "internalType": "string",
          "name": "_name",
          "type": "string"
        },
        {
          "internalType": "uint32",
          "name": "_copies",
          "type": "uint32"
        }
      ],
      "name": "addBook",
      "outputs": [],
      "stateMutability": "nonpayable",
      "type": "function"
    },
    {
      "inputs": [
        {
          "internalType": "uint32",
          "name": "_bookId",
          "type": "uint32"
        },
        {
          "internalType": "uint32",
          "name": "_copies",
          "type": "uint32"
        }
      ],
      "name": "addBookCopies",
      "outputs": [],
      "stateMutability": "nonpayable",
      "type": "function"
    },
    {
      "inputs": [],
      "name": "allAvailableBooks",
      "outputs": [
        {
          "internalType": "string[]",
          "name": "",
          "type": "string[]"
        }
      ],
      "stateMutability": "view",
      "type": "function"
    },
    {
      "inputs": [
        {
          "internalType": "uint256",
          "name": "",
          "type": "uint256"
        }
      ],
      "name": "bookTitles",
      "outputs": [
        {
          "internalType": "string",
          "name": "",
          "type": "string"
        }
      ],
      "stateMutability": "view",
      "type": "function"
    },
    {
      "inputs": [
        {
          "internalType": "uint32",
          "name": "_id",
          "type": "uint32"
        }
      ],
      "name": "borrowBook",
      "outputs": [],
      "stateMutability": "nonpayable",
      "type": "function"
    },
    {
      "inputs": [],
      "name": "currentBookId",
      "outputs": [
        {
          "internalType": "uint256",
          "name": "_value",
          "type": "uint256"
        }
      ],
      "stateMutability": "view",
      "type": "function"
    },
    {
      "inputs": [],
      "name": "getAllAvailableBooks",
      "outputs": [
        {
          "internalType": "uint256[]",
          "name": "",
          "type": "uint256[]"
        }
      ],
      "stateMutability": "view",
      "type": "function"
    },
    {
      "inputs": [
        {
          "internalType": "uint256",
          "name": "_id",
          "type": "uint256"
        }
      ],
      "name": "getOwnerHistoryOfBook",
      "outputs": [
        {
          "internalType": "address[]",
          "name": "",
          "type": "address[]"
        }
      ],
      "stateMutability": "view",
      "type": "function"
    },
    {
      "inputs": [],
      "name": "owner",
      "outputs": [
        {
          "internalType": "address",
          "name": "",
          "type": "address"
        }
      ],
      "stateMutability": "view",
      "type": "function"
    },
    {
      "inputs": [],
      "name": "renounceOwnership",
      "outputs": [],
      "stateMutability": "nonpayable",
      "type": "function"
    },
    {
      "inputs": [
        {
          "internalType": "uint32",
          "name": "_id",
          "type": "uint32"
        }
      ],
      "name": "returnBook",
      "outputs": [],
      "stateMutability": "nonpayable",
      "type": "function"
    },
    {
      "inputs": [
        {
          "internalType": "address",
          "name": "newOwner",
          "type": "address"
        }
      ],
      "name": "transferOwnership",
      "outputs": [],
      "stateMutability": "nonpayable",
      "type": "function"
    }
  ],
  "bytecode": "0x608060405234801561001057600080fd5b5061002d61002261003260201b60201c565b61003a60201b60201c565b6100fe565b600033905090565b60008060009054906101000a900473ffffffffffffffffffffffffffffffffffffffff169050816000806101000a81548173ffffffffffffffffffffffffffffffffffffffff021916908373ffffffffffffffffffffffffffffffffffffffff1602179055508173ffffffffffffffffffffffffffffffffffffffff168173ffffffffffffffffffffffffffffffffffffffff167f8be0079c531659141344cd1fd0a4f28419497f9722a3daafe3b4186f6b6457e060405160405180910390a35050565b6122dd806200010e6000396000f3fe608060405234801561001057600080fd5b50600436106100cf5760003560e01c80637975c6b41161008c578063bdaa3c1e11610066578063bdaa3c1e14610202578063f2fde38b1461021e578063f4cbc4a61461023a578063fef4c92a14610258576100cf565b80637975c6b4146101945780638da5cb5b146101c6578063a20281d0146101e4576100cf565b80631c12ef99146100d4578063422d262914610104578063442413441461012057806348569e591461013e578063642ea5ce1461015a578063715018a61461018a575b600080fd5b6100ee60048036038101906100e9919061114f565b610274565b6040516100fb919061120c565b60405180910390f35b61011e6004803603810190610119919061126a565b610320565b005b61012861046c565b60405161013591906112a6565b60405180910390f35b6101586004803603810190610153919061126a565b610478565b005b610174600480360381019061016f919061114f565b610648565b60405161018191906113b1565b60405180910390f35b61019261076b565b005b6101ae60048036038101906101a9919061114f565b61077f565b6040516101bd939291906113d3565b60405180910390f35b6101ce610831565b6040516101db9190611420565b60405180910390f35b6101ec61085a565b6040516101f99190611547565b60405180910390f35b61021c6004803603810190610217919061169e565b610939565b005b61023860048036038101906102339190611726565b610b2b565b005b610242610bae565b60405161024f9190611811565b60405180910390f35b610272600480360381019061026d9190611833565b610de9565b005b6009818154811061028457600080fd5b90600052602060002001600091509050805461029f906118a2565b80601f01602080910402602001604051908101604052809291908181526020018280546102cb906118a2565b80156103185780601f106102ed57610100808354040283529160200191610318565b820191906000526020600020905b8154815290600101906020018083116102fb57829003601f168201915b505050505081565b600760003373ffffffffffffffffffffffffffffffffffffffff1673ffffffffffffffffffffffffffffffffffffffff16815260200190815260200160002060008263ffffffff16815260200190815260200160002060009054906101000a900460ff166103c3576040517f08c379a00000000000000000000000000000000000000000000000000000000081526004016103ba9061191f565b60405180910390fd5b6000600660008363ffffffff1681526020019081526020016000209050600181600101546103f1919061196e565b81600101819055506000600760003373ffffffffffffffffffffffffffffffffffffffff1673ffffffffffffffffffffffffffffffffffffffff16815260200190815260200160002060008463ffffffff16815260200190815260200160002060006101000a81548160ff0219169083151502179055505050565b60088060000154905081565b600760003373ffffffffffffffffffffffffffffffffffffffff1673ffffffffffffffffffffffffffffffffffffffff16815260200190815260200160002060008263ffffffff16815260200190815260200160002060009054906101000a900460ff161561051c576040517f08c379a0000000000000000000000000000000000000000000000000000000008152600401610513906119ee565b60405180910390fd5b6001600760003373ffffffffffffffffffffffffffffffffffffffff1673ffffffffffffffffffffffffffffffffffffffff16815260200190815260200160002060008363ffffffff16815260200190815260200160002060006101000a81548160ff0219169083151502179055506000600660008363ffffffff16815260200190815260200160002090506001816001015410156105ba57600080fd5b600181600101546105cb9190611a0e565b8160010181905550338160030160008360020154815260200190815260200160002060006101000a81548173ffffffffffffffffffffffffffffffffffffffff021916908373ffffffffffffffffffffffffffffffffffffffff1602179055506001816002015461063c919061196e565b81600201819055505050565b60606000600660008481526020019081526020016000206002015467ffffffffffffffff81111561067c5761067b611573565b5b6040519080825280602002602001820160405280156106aa5781602001602082028036833780820191505090505b50905060005b81518110156107615760066000858152602001908152602001600020600301600082815260200190815260200160002060009054906101000a900473ffffffffffffffffffffffffffffffffffffffff1682828151811061071457610713611a42565b5b602002602001019073ffffffffffffffffffffffffffffffffffffffff16908173ffffffffffffffffffffffffffffffffffffffff1681525050808061075990611a71565b9150506106b0565b5080915050919050565b610773610ed2565b61077d6000610f50565b565b60066020528060005260406000206000915090508060000180546107a2906118a2565b80601f01602080910402602001604051908101604052809291908181526020018280546107ce906118a2565b801561081b5780601f106107f05761010080835404028352916020019161081b565b820191906000526020600020905b8154815290600101906020018083116107fe57829003601f168201915b5050505050908060010154908060020154905083565b60008060009054906101000a900473ffffffffffffffffffffffffffffffffffffffff16905090565b606060006009805480602002602001604051908101604052809291908181526020016000905b8282101561092c57838290600052602060002001805461089f906118a2565b80601f01602080910402602001604051908101604052809291908181526020018280546108cb906118a2565b80156109185780601f106108ed57610100808354040283529160200191610918565b820191906000526020600020905b8154815290600101906020018083116108fb57829003601f168201915b505050505081526020019060010190610880565b5050505090508091505090565b610941610ed2565b6000825103610985576040517f08c379a000000000000000000000000000000000000000000000000000000000815260040161097c90611b05565b60405180910390fd5b60008163ffffffff16116109ce576040517f08c379a00000000000000000000000000000000000000000000000000000000081526004016109c590611b71565b60405180910390fd5b60005b600980549050811015610a9c57600981815481106109f2576109f1611a42565b5b90600052602060002001604051602001610a0c9190611c34565b6040516020818303038152906040528051906020012083604051602001610a339190611c7c565b6040516020818303038152906040528051906020012003610a89576040517f08c379a0000000000000000000000000000000000000000000000000000000008152600401610a8090611d05565b60405180910390fd5b8080610a9490611a71565b9150506109d1565b506000610aa96008611014565b9050600060066000838152602001908152602001600020905083816000019081610ad39190611ebc565b508263ffffffff168160010181905550600981600001908060018154018082558091505060019003906000526020600020016000909190919091509081610b1a9190611fb9565b50610b256008611022565b50505050565b610b33610ed2565b600073ffffffffffffffffffffffffffffffffffffffff168173ffffffffffffffffffffffffffffffffffffffff1603610ba2576040517f08c379a0000000000000000000000000000000000000000000000000000000008152600401610b9990612113565b60405180910390fd5b610bab81610f50565b50565b6060600080600190505b610bc26008611014565b8111610c7057600760003373ffffffffffffffffffffffffffffffffffffffff1673ffffffffffffffffffffffffffffffffffffffff168152602001908152602001600020600082815260200190815260200160002060009054906101000a900460ff16158015610c49575060006006600083815260200190815260200160002060010154115b15610c5d578180610c5990611a71565b9250505b8080610c6890611a71565b915050610bb8565b5060008167ffffffffffffffff811115610c8d57610c8c611573565b5b604051908082528060200260200182016040528015610cbb5781602001602082028036833780820191505090505b509050600091506000600190505b610cd36008611014565b8111610de057600760003373ffffffffffffffffffffffffffffffffffffffff1673ffffffffffffffffffffffffffffffffffffffff168152602001908152602001600020600082815260200190815260200160002060009054906101000a900460ff16158015610d5a575060006006600083815260200190815260200160002060010154115b15610dcd5780828481518110610d7357610d72611a42565b5b602002602001018181525050610dbe6040518060400160405280600581526020017f696e64657800000000000000000000000000000000000000000000000000000081525082611038565b8280610dc990611a71565b9350505b8080610dd890611a71565b915050610cc9565b50809250505090565b610df1610ed2565b60008163ffffffff1611610e3a576040517f08c379a0000000000000000000000000000000000000000000000000000000008152600401610e319061217f565b60405180910390fd5b6000600660008463ffffffff16815260200190815260200160002090506000816000018054610e68906118a2565b905003610eaa576040517f08c379a0000000000000000000000000000000000000000000000000000000008152600401610ea1906121eb565b60405180910390fd5b6001816001016000828254610ebf919061196e565b9250508190558160010181905550505050565b610eda6110d4565b73ffffffffffffffffffffffffffffffffffffffff16610ef8610831565b73ffffffffffffffffffffffffffffffffffffffff1614610f4e576040517f08c379a0000000000000000000000000000000000000000000000000000000008152600401610f4590612257565b60405180910390fd5b565b60008060009054906101000a900473ffffffffffffffffffffffffffffffffffffffff169050816000806101000a81548173ffffffffffffffffffffffffffffffffffffffff021916908373ffffffffffffffffffffffffffffffffffffffff1602179055508173ffffffffffffffffffffffffffffffffffffffff168173ffffffffffffffffffffffffffffffffffffffff167f8be0079c531659141344cd1fd0a4f28419497f9722a3daafe3b4186f6b6457e060405160405180910390a35050565b600081600001549050919050565b6001816000016000828254019250508190555050565b6110d0828260405160240161104e929190612277565b6040516020818303038152906040527fb60e72cc000000000000000000000000000000000000000000000000000000007bffffffffffffffffffffffffffffffffffffffffffffffffffffffff19166020820180517bffffffffffffffffffffffffffffffffffffffffffffffffffffffff83818316178352505050506110dc565b5050565b600033905090565b60008151905060006a636f6e736f6c652e6c6f679050602083016000808483855afa5050505050565b6000604051905090565b600080fd5b600080fd5b6000819050919050565b61112c81611119565b811461113757600080fd5b50565b60008135905061114981611123565b92915050565b6000602082840312156111655761116461110f565b5b60006111738482850161113a565b91505092915050565b600081519050919050565b600082825260208201905092915050565b60005b838110156111b657808201518184015260208101905061119b565b60008484015250505050565b6000601f19601f8301169050919050565b60006111de8261117c565b6111e88185611187565b93506111f8818560208601611198565b611201816111c2565b840191505092915050565b6000602082019050818103600083015261122681846111d3565b905092915050565b600063ffffffff82169050919050565b6112478161122e565b811461125257600080fd5b50565b6000813590506112648161123e565b92915050565b6000602082840312156112805761127f61110f565b5b600061128e84828501611255565b91505092915050565b6112a081611119565b82525050565b60006020820190506112bb6000830184611297565b92915050565b600081519050919050565b600082825260208201905092915050565b6000819050602082019050919050565b600073ffffffffffffffffffffffffffffffffffffffff82169050919050565b6000611318826112ed565b9050919050565b6113288161130d565b82525050565b600061133a838361131f565b60208301905092915050565b6000602082019050919050565b600061135e826112c1565b61136881856112cc565b9350611373836112dd565b8060005b838110156113a457815161138b888261132e565b975061139683611346565b925050600181019050611377565b5085935050505092915050565b600060208201905081810360008301526113cb8184611353565b905092915050565b600060608201905081810360008301526113ed81866111d3565b90506113fc6020830185611297565b6114096040830184611297565b949350505050565b61141a8161130d565b82525050565b60006020820190506114356000830184611411565b92915050565b600081519050919050565b600082825260208201905092915050565b6000819050602082019050919050565b600082825260208201905092915050565b60006114838261117c565b61148d8185611467565b935061149d818560208601611198565b6114a6816111c2565b840191505092915050565b60006114bd8383611478565b905092915050565b6000602082019050919050565b60006114dd8261143b565b6114e78185611446565b9350836020820285016114f985611457565b8060005b85811015611535578484038952815161151685826114b1565b9450611521836114c5565b925060208a019950506001810190506114fd565b50829750879550505050505092915050565b6000602082019050818103600083015261156181846114d2565b905092915050565b600080fd5b600080fd5b7f4e487b7100000000000000000000000000000000000000000000000000000000600052604160045260246000fd5b6115ab826111c2565b810181811067ffffffffffffffff821117156115ca576115c9611573565b5b80604052505050565b60006115dd611105565b90506115e982826115a2565b919050565b600067ffffffffffffffff82111561160957611608611573565b5b611612826111c2565b9050602081019050919050565b82818337600083830152505050565b600061164161163c846115ee565b6115d3565b90508281526020810184848401111561165d5761165c61156e565b5b61166884828561161f565b509392505050565b600082601f83011261168557611684611569565b5b813561169584826020860161162e565b91505092915050565b600080604083850312156116b5576116b461110f565b5b600083013567ffffffffffffffff8111156116d3576116d2611114565b5b6116df85828601611670565b92505060206116f085828601611255565b9150509250929050565b6117038161130d565b811461170e57600080fd5b50565b600081359050611720816116fa565b92915050565b60006020828403121561173c5761173b61110f565b5b600061174a84828501611711565b91505092915050565b600081519050919050565b600082825260208201905092915050565b6000819050602082019050919050565b61178881611119565b82525050565b600061179a838361177f565b60208301905092915050565b6000602082019050919050565b60006117be82611753565b6117c8818561175e565b93506117d38361176f565b8060005b838110156118045781516117eb888261178e565b97506117f6836117a6565b9250506001810190506117d7565b5085935050505092915050565b6000602082019050818103600083015261182b81846117b3565b905092915050565b6000806040838503121561184a5761184961110f565b5b600061185885828601611255565b925050602061186985828601611255565b9150509250929050565b7f4e487b7100000000000000000000000000000000000000000000000000000000600052602260045260246000fd5b600060028204905060018216806118ba57607f821691505b6020821081036118cd576118cc611873565b5b50919050565b7f426f6f6b206973206e6f74206973737565640000000000000000000000000000600082015250565b6000611909601283611187565b9150611914826118d3565b602082019050919050565b60006020820190508181036000830152611938816118fc565b9050919050565b7f4e487b7100000000000000000000000000000000000000000000000000000000600052601160045260246000fd5b600061197982611119565b915061198483611119565b925082820190508082111561199c5761199b61193f565b5b92915050565b7f426f6f6b20697320616c72656164792069737375656400000000000000000000600082015250565b60006119d8601683611187565b91506119e3826119a2565b602082019050919050565b60006020820190508181036000830152611a07816119cb565b9050919050565b6000611a1982611119565b9150611a2483611119565b9250828203905081811115611a3c57611a3b61193f565b5b92915050565b7f4e487b7100000000000000000000000000000000000000000000000000000000600052603260045260246000fd5b6000611a7c82611119565b91507fffffffffffffffffffffffffffffffffffffffffffffffffffffffffffffffff8203611aae57611aad61193f565b5b600182019050919050565b7f4e616d652063616e6e6f7420626520656d707479000000000000000000000000600082015250565b6000611aef601483611187565b9150611afa82611ab9565b602082019050919050565b60006020820190508181036000830152611b1e81611ae2565b9050919050565b7f436f706965732063616e6e6f74206265207a65726f0000000000000000000000600082015250565b6000611b5b601583611187565b9150611b6682611b25565b602082019050919050565b60006020820190508181036000830152611b8a81611b4e565b9050919050565b600081905092915050565b60008190508160005260206000209050919050565b60008154611bbe816118a2565b611bc88186611b91565b94506001821660008114611be35760018114611bf857611c2b565b60ff1983168652811515820286019350611c2b565b611c0185611b9c565b60005b83811015611c2357815481890152600182019150602081019050611c04565b838801955050505b50505092915050565b6000611c408284611bb1565b915081905092915050565b6000611c568261117c565b611c608185611b91565b9350611c70818560208601611198565b80840191505092915050565b6000611c888284611c4b565b915081905092915050565b7f5468697320626f6f6b207469746c652068617320616c7265616479206265656e60008201527f2061646465642000000000000000000000000000000000000000000000000000602082015250565b6000611cef602783611187565b9150611cfa82611c93565b604082019050919050565b60006020820190508181036000830152611d1e81611ce2565b9050919050565b60006020601f8301049050919050565b600082821b905092915050565b600060088302611d727fffffffffffffffffffffffffffffffffffffffffffffffffffffffffffffffff82611d35565b611d7c8683611d35565b95508019841693508086168417925050509392505050565b6000819050919050565b6000611db9611db4611daf84611119565b611d94565b611119565b9050919050565b6000819050919050565b611dd383611d9e565b611de7611ddf82611dc0565b848454611d42565b825550505050565b600090565b611dfc611def565b611e07818484611dca565b505050565b5b81811015611e2b57611e20600082611df4565b600181019050611e0d565b5050565b601f821115611e7057611e4181611b9c565b611e4a84611d25565b81016020851015611e59578190505b611e6d611e6585611d25565b830182611e0c565b50505b505050565b600082821c905092915050565b6000611e9360001984600802611e75565b1980831691505092915050565b6000611eac8383611e82565b9150826002028217905092915050565b611ec58261117c565b67ffffffffffffffff811115611ede57611edd611573565b5b611ee882546118a2565b611ef3828285611e2f565b600060209050601f831160018114611f265760008415611f14578287015190505b611f1e8582611ea0565b865550611f86565b601f198416611f3486611b9c565b60005b82811015611f5c57848901518255600182019150602085019450602081019050611f37565b86831015611f795784890151611f75601f891682611e82565b8355505b6001600288020188555050505b505050505050565b600081549050611f9d816118a2565b9050919050565b60008190508160005260206000209050919050565b818103611fc757505061209f565b611fd082611f8e565b67ffffffffffffffff811115611fe957611fe8611573565b5b611ff382546118a2565b611ffe828285611e2f565b6000601f83116001811461202d576000841561201b578287015490505b6120258582611ea0565b865550612098565b601f19841661203b87611fa4565b965061204686611b9c565b60005b8281101561206e57848901548255600182019150600185019450602081019050612049565b8683101561208b5784890154612087601f891682611e82565b8355505b6001600288020188555050505b5050505050505b565b7f4f776e61626c653a206e6577206f776e657220697320746865207a65726f206160008201527f6464726573730000000000000000000000000000000000000000000000000000602082015250565b60006120fd602683611187565b9150612108826120a1565b604082019050919050565b6000602082019050818103600083015261212c816120f0565b9050919050565b7f217a65726f000000000000000000000000000000000000000000000000000000600082015250565b6000612169600583611187565b915061217482612133565b602082019050919050565b600060208201905081810360008301526121988161215c565b9050919050565b7f426f6f6b20646f6573206e6f7420657869737400000000000000000000000000600082015250565b60006121d5601383611187565b91506121e08261219f565b602082019050919050565b60006020820190508181036000830152612204816121c8565b9050919050565b7f4f776e61626c653a2063616c6c6572206973206e6f7420746865206f776e6572600082015250565b6000612241602083611187565b915061224c8261220b565b602082019050919050565b6000602082019050818103600083015261227081612234565b9050919050565b6000604082019050818103600083015261229181856111d3565b90506122a06020830184611297565b939250505056fea2646970667358221220f2ddd94ad20ae8149d3eb2968247c16e06444f7c7577e5006a40a48acf4a43d664736f6c63430008110033",
  "linkReferences": {},
  "deployedLinkReferences": {}
}